{
  "address": "0x3AEDBc554Af1977034c3FFeD00251ab18935F5Ce",
  "abi": [
    {
      "inputs": [],
      "stateMutability": "nonpayable",
      "type": "constructor"
    },
    {
      "anonymous": false,
      "inputs": [
        {
          "indexed": true,
          "internalType": "address",
          "name": "owner",
          "type": "address"
        },
        {
          "indexed": true,
          "internalType": "address",
          "name": "approved",
          "type": "address"
        },
        {
          "indexed": true,
          "internalType": "uint256",
          "name": "tokenId",
          "type": "uint256"
        }
      ],
      "name": "Approval",
      "type": "event"
    },
    {
      "anonymous": false,
      "inputs": [
        {
          "indexed": true,
          "internalType": "address",
          "name": "owner",
          "type": "address"
        },
        {
          "indexed": true,
          "internalType": "address",
          "name": "operator",
          "type": "address"
        },
        {
          "indexed": false,
          "internalType": "bool",
          "name": "approved",
          "type": "bool"
        }
      ],
      "name": "ApprovalForAll",
      "type": "event"
    },
    {
      "anonymous": false,
      "inputs": [
        {
          "indexed": true,
          "internalType": "uint256",
          "name": "tokenId",
          "type": "uint256"
        },
        {
          "indexed": false,
          "internalType": "string",
          "name": "tokenURI",
          "type": "string"
        }
      ],
      "name": "CreatedSVGNFT",
      "type": "event"
    },
    {
      "anonymous": false,
      "inputs": [
        {
          "indexed": true,
          "internalType": "address",
          "name": "from",
          "type": "address"
        },
        {
          "indexed": true,
          "internalType": "address",
          "name": "to",
          "type": "address"
        },
        {
          "indexed": true,
          "internalType": "uint256",
          "name": "tokenId",
          "type": "uint256"
        }
      ],
      "name": "Transfer",
      "type": "event"
    },
    {
      "inputs": [
        {
          "internalType": "address",
          "name": "to",
          "type": "address"
        },
        {
          "internalType": "uint256",
          "name": "tokenId",
          "type": "uint256"
        }
      ],
      "name": "approve",
      "outputs": [],
      "stateMutability": "nonpayable",
      "type": "function"
    },
    {
      "inputs": [
        {
          "internalType": "address",
          "name": "owner",
          "type": "address"
        }
      ],
      "name": "balanceOf",
      "outputs": [
        {
          "internalType": "uint256",
          "name": "",
          "type": "uint256"
        }
      ],
      "stateMutability": "view",
      "type": "function"
    },
    {
      "inputs": [
        {
          "internalType": "string",
          "name": "_svg",
          "type": "string"
        }
      ],
      "name": "create",
      "outputs": [],
      "stateMutability": "nonpayable",
      "type": "function"
    },
    {
      "inputs": [
        {
          "internalType": "string",
          "name": "_imageURI",
          "type": "string"
        }
      ],
      "name": "formatTokenURI",
      "outputs": [
        {
          "internalType": "string",
          "name": "",
          "type": "string"
        }
      ],
      "stateMutability": "pure",
      "type": "function"
    },
    {
      "inputs": [
        {
          "internalType": "uint256",
          "name": "tokenId",
          "type": "uint256"
        }
      ],
      "name": "getApproved",
      "outputs": [
        {
          "internalType": "address",
          "name": "",
          "type": "address"
        }
      ],
      "stateMutability": "view",
      "type": "function"
    },
    {
      "inputs": [
        {
          "internalType": "address",
          "name": "owner",
          "type": "address"
        },
        {
          "internalType": "address",
          "name": "operator",
          "type": "address"
        }
      ],
      "name": "isApprovedForAll",
      "outputs": [
        {
          "internalType": "bool",
          "name": "",
          "type": "bool"
        }
      ],
      "stateMutability": "view",
      "type": "function"
    },
    {
      "inputs": [],
      "name": "name",
      "outputs": [
        {
          "internalType": "string",
          "name": "",
          "type": "string"
        }
      ],
      "stateMutability": "view",
      "type": "function"
    },
    {
      "inputs": [
        {
          "internalType": "uint256",
          "name": "tokenId",
          "type": "uint256"
        }
      ],
      "name": "ownerOf",
      "outputs": [
        {
          "internalType": "address",
          "name": "",
          "type": "address"
        }
      ],
      "stateMutability": "view",
      "type": "function"
    },
    {
      "inputs": [
        {
          "internalType": "address",
          "name": "from",
          "type": "address"
        },
        {
          "internalType": "address",
          "name": "to",
          "type": "address"
        },
        {
          "internalType": "uint256",
          "name": "tokenId",
          "type": "uint256"
        }
      ],
      "name": "safeTransferFrom",
      "outputs": [],
      "stateMutability": "nonpayable",
      "type": "function"
    },
    {
      "inputs": [
        {
          "internalType": "address",
          "name": "from",
          "type": "address"
        },
        {
          "internalType": "address",
          "name": "to",
          "type": "address"
        },
        {
          "internalType": "uint256",
          "name": "tokenId",
          "type": "uint256"
        },
        {
          "internalType": "bytes",
          "name": "_data",
          "type": "bytes"
        }
      ],
      "name": "safeTransferFrom",
      "outputs": [],
      "stateMutability": "nonpayable",
      "type": "function"
    },
    {
      "inputs": [
        {
          "internalType": "address",
          "name": "operator",
          "type": "address"
        },
        {
          "internalType": "bool",
          "name": "approved",
          "type": "bool"
        }
      ],
      "name": "setApprovalForAll",
      "outputs": [],
      "stateMutability": "nonpayable",
      "type": "function"
    },
    {
      "inputs": [
        {
          "internalType": "bytes4",
          "name": "interfaceId",
          "type": "bytes4"
        }
      ],
      "name": "supportsInterface",
      "outputs": [
        {
          "internalType": "bool",
          "name": "",
          "type": "bool"
        }
      ],
      "stateMutability": "view",
      "type": "function"
    },
    {
      "inputs": [
        {
          "internalType": "string",
          "name": "_svg",
          "type": "string"
        }
      ],
      "name": "svgToImageUri",
      "outputs": [
        {
          "internalType": "string",
          "name": "",
          "type": "string"
        }
      ],
      "stateMutability": "pure",
      "type": "function"
    },
    {
      "inputs": [],
      "name": "symbol",
      "outputs": [
        {
          "internalType": "string",
          "name": "",
          "type": "string"
        }
      ],
      "stateMutability": "view",
      "type": "function"
    },
    {
      "inputs": [],
      "name": "tokenCounter",
      "outputs": [
        {
          "internalType": "uint256",
          "name": "",
          "type": "uint256"
        }
      ],
      "stateMutability": "view",
      "type": "function"
    },
    {
      "inputs": [
        {
          "internalType": "uint256",
          "name": "tokenId",
          "type": "uint256"
        }
      ],
      "name": "tokenURI",
      "outputs": [
        {
          "internalType": "string",
          "name": "",
          "type": "string"
        }
      ],
      "stateMutability": "view",
      "type": "function"
    },
    {
      "inputs": [
        {
          "internalType": "address",
          "name": "from",
          "type": "address"
        },
        {
          "internalType": "address",
          "name": "to",
          "type": "address"
        },
        {
          "internalType": "uint256",
          "name": "tokenId",
          "type": "uint256"
        }
      ],
      "name": "transferFrom",
      "outputs": [],
      "stateMutability": "nonpayable",
      "type": "function"
    }
  ],
  "transactionHash": "0x060d0b657713f0bdd38e8e287b25fa405fbef324e8924515b6cf60b945d604b3",
  "args": [],
  "solcInputHash": "530a1f7a1d24b395c6caf00dcbf0a9b8",
  "bytecode": "0x60806040523480156200001157600080fd5b506040518060400160405280600781526020017f535647204e4654000000000000000000000000000000000000000000000000008152506040518060400160405280600681526020017f7376674e46540000000000000000000000000000000000000000000000000000815250816000908051906020019062000096929190620000c0565b508060019080519060200190620000af929190620000c0565b5050506000600781905550620001d5565b828054620000ce906200019f565b90600052602060002090601f016020900481019282620000f257600085556200013e565b82601f106200010d57805160ff19168380011785556200013e565b828001600101855582156200013e579182015b828111156200013d57825182559160200191906001019062000120565b5b5090506200014d919062000151565b5090565b5b808211156200016c57600081600090555060010162000152565b5090565b7f4e487b7100000000000000000000000000000000000000000000000000000000600052602260045260246000fd5b60006002820490506001821680620001b857607f821691505b60208210811415620001cf57620001ce62000170565b5b50919050565b6131f580620001e56000396000f3fe608060405234801561001057600080fd5b506004361061010b5760003560e01c806370a08231116100a2578063b6a46b3b11610071578063b6a46b3b146102dc578063b88d4fde146102f8578063c87b56dd14610314578063d082e38114610344578063e985e9c5146103625761010b565b806370a082311461024257806371aee1931461027257806395d89b41146102a2578063a22cb465146102c05761010b565b806323b872dd116100de57806323b872dd146101aa5780633207d93c146101c657806342842e0e146101f65780636352211e146102125761010b565b806301ffc9a71461011057806306fdde0314610140578063081812fc1461015e578063095ea7b31461018e575b600080fd5b61012a60048036038101906101259190611cc9565b610392565b6040516101379190611d11565b60405180910390f35b610148610474565b6040516101559190611dc5565b60405180910390f35b61017860048036038101906101739190611e1d565b610506565b6040516101859190611e8b565b60405180910390f35b6101a860048036038101906101a39190611ed2565b61058b565b005b6101c460048036038101906101bf9190611f12565b6106a3565b005b6101e060048036038101906101db919061209a565b610703565b6040516101ed9190611dc5565b60405180910390f35b610210600480360381019061020b9190611f12565b61079c565b005b61022c60048036038101906102279190611e1d565b6107bc565b6040516102399190611e8b565b60405180910390f35b61025c600480360381019061025791906120e3565b61086e565b604051610269919061211f565b60405180910390f35b61028c6004803603810190610287919061209a565b610926565b6040516102999190611dc5565b60405180910390f35b6102aa6109b3565b6040516102b79190611dc5565b60405180910390f35b6102da60048036038101906102d59190612166565b610a45565b005b6102f660048036038101906102f1919061209a565b610bc6565b005b610312600480360381019061030d9190612247565b610c4c565b005b61032e60048036038101906103299190611e1d565b610cae565b60405161033b9190611dc5565b60405180910390f35b61034c610e00565b604051610359919061211f565b60405180910390f35b61037c600480360381019061037791906122ca565b610e06565b6040516103899190611d11565b60405180910390f35b60007f80ac58cd000000000000000000000000000000000000000000000000000000007bffffffffffffffffffffffffffffffffffffffffffffffffffffffff1916827bffffffffffffffffffffffffffffffffffffffffffffffffffffffff1916148061045d57507f5b5e139f000000000000000000000000000000000000000000000000000000007bffffffffffffffffffffffffffffffffffffffffffffffffffffffff1916827bffffffffffffffffffffffffffffffffffffffffffffffffffffffff1916145b8061046d575061046c82610e9a565b5b9050919050565b60606000805461048390612339565b80601f01602080910402602001604051908101604052809291908181526020018280546104af90612339565b80156104fc5780601f106104d1576101008083540402835291602001916104fc565b820191906000526020600020905b8154815290600101906020018083116104df57829003601f168201915b5050505050905090565b600061051182610f04565b610550576040517f08c379a0000000000000000000000000000000000000000000000000000000008152600401610547906123dd565b60405180910390fd5b6004600083815260200190815260200160002060009054906101000a900473ffffffffffffffffffffffffffffffffffffffff169050919050565b6000610596826107bc565b90508073ffffffffffffffffffffffffffffffffffffffff168373ffffffffffffffffffffffffffffffffffffffff161415610607576040517f08c379a00000000000000000000000000000000000000000000000000000000081526004016105fe9061246f565b60405180910390fd5b8073ffffffffffffffffffffffffffffffffffffffff16610626610f70565b73ffffffffffffffffffffffffffffffffffffffff16148061065557506106548161064f610f70565b610e06565b5b610694576040517f08c379a000000000000000000000000000000000000000000000000000000000815260040161068b90612501565b60405180910390fd5b61069e8383610f78565b505050565b6106b46106ae610f70565b82611031565b6106f3576040517f08c379a00000000000000000000000000000000000000000000000000000000081526004016106ea90612593565b60405180910390fd5b6106fe83838361110f565b505050565b606060006040518060400160405280601a81526020017f646174613a696d6167652f7376672b786d6c3b6261736536342c000000000000815250905060006107698460405160200161075591906125ef565b60405160208183030381529060405261136b565b905060008282604051602001610780929190612606565b6040516020818303038152906040529050809350505050919050565b6107b783838360405180602001604052806000815250610c4c565b505050565b6000806002600084815260200190815260200160002060009054906101000a900473ffffffffffffffffffffffffffffffffffffffff169050600073ffffffffffffffffffffffffffffffffffffffff168173ffffffffffffffffffffffffffffffffffffffff161415610865576040517f08c379a000000000000000000000000000000000000000000000000000000000815260040161085c9061269c565b60405180910390fd5b80915050919050565b60008073ffffffffffffffffffffffffffffffffffffffff168273ffffffffffffffffffffffffffffffffffffffff1614156108df576040517f08c379a00000000000000000000000000000000000000000000000000000000081526004016108d69061272e565b60405180910390fd5b600360008373ffffffffffffffffffffffffffffffffffffffff1673ffffffffffffffffffffffffffffffffffffffff168152602001908152602001600020549050919050565b606060006040518060400160405280601c81526020017f646174613a6170706c69636174696f6e2f6a736f6e3b6261736536340000000081525090508061098b8460405160200161097791906128f0565b60405160208183030381529060405261136b565b60405160200161099c929190612606565b604051602081830303815290604052915050919050565b6060600180546109c290612339565b80601f01602080910402602001604051908101604052809291908181526020018280546109ee90612339565b8015610a3b5780601f10610a1057610100808354040283529160200191610a3b565b820191906000526020600020905b815481529060010190602001808311610a1e57829003601f168201915b5050505050905090565b610a4d610f70565b73ffffffffffffffffffffffffffffffffffffffff168273ffffffffffffffffffffffffffffffffffffffff161415610abb576040517f08c379a0000000000000000000000000000000000000000000000000000000008152600401610ab29061298a565b60405180910390fd5b8060056000610ac8610f70565b73ffffffffffffffffffffffffffffffffffffffff1673ffffffffffffffffffffffffffffffffffffffff16815260200190815260200160002060008473ffffffffffffffffffffffffffffffffffffffff1673ffffffffffffffffffffffffffffffffffffffff16815260200190815260200160002060006101000a81548160ff0219169083151502179055508173ffffffffffffffffffffffffffffffffffffffff16610b75610f70565b73ffffffffffffffffffffffffffffffffffffffff167f17307eab39ab6107e8899845ad3d59bd9653f200f220920489ca2b5937696c3183604051610bba9190611d11565b60405180910390a35050565b610bd2336007546114e4565b6000610bdd82610703565b90506000610bea82610926565b9050610bf860075482611502565b6007547ff5acc616aa8ecd00e5d76674d7812f9c3c3571d662c9fba4499deefa6d0be12d82604051610c2a9190611dc5565b60405180910390a26001600754610c4191906129d9565b600781905550505050565b610c5d610c57610f70565b83611031565b610c9c576040517f08c379a0000000000000000000000000000000000000000000000000000000008152600401610c9390612593565b60405180910390fd5b610ca884848484611576565b50505050565b6060610cb982610f04565b610cf8576040517f08c379a0000000000000000000000000000000000000000000000000000000008152600401610cef90612aa1565b60405180910390fd5b6000600660008481526020019081526020016000208054610d1890612339565b80601f0160208091040260200160405190810160405280929190818152602001828054610d4490612339565b8015610d915780601f10610d6657610100808354040283529160200191610d91565b820191906000526020600020905b815481529060010190602001808311610d7457829003601f168201915b505050505090506000610da26115d2565b9050600081511415610db8578192505050610dfb565b600082511115610ded578082604051602001610dd5929190612606565b60405160208183030381529060405292505050610dfb565b610df6846115e9565b925050505b919050565b60075481565b6000600560008473ffffffffffffffffffffffffffffffffffffffff1673ffffffffffffffffffffffffffffffffffffffff16815260200190815260200160002060008373ffffffffffffffffffffffffffffffffffffffff1673ffffffffffffffffffffffffffffffffffffffff16815260200190815260200160002060009054906101000a900460ff16905092915050565b60007f01ffc9a7000000000000000000000000000000000000000000000000000000007bffffffffffffffffffffffffffffffffffffffffffffffffffffffff1916827bffffffffffffffffffffffffffffffffffffffffffffffffffffffff1916149050919050565b60008073ffffffffffffffffffffffffffffffffffffffff166002600084815260200190815260200160002060009054906101000a900473ffffffffffffffffffffffffffffffffffffffff1673ffffffffffffffffffffffffffffffffffffffff1614159050919050565b600033905090565b816004600083815260200190815260200160002060006101000a81548173ffffffffffffffffffffffffffffffffffffffff021916908373ffffffffffffffffffffffffffffffffffffffff160217905550808273ffffffffffffffffffffffffffffffffffffffff16610feb836107bc565b73ffffffffffffffffffffffffffffffffffffffff167f8c5be1e5ebec7d5bd14f71427d1e84f3dd0314c0f7b2291e5b200ac8c7c3b92560405160405180910390a45050565b600061103c82610f04565b61107b576040517f08c379a000000000000000000000000000000000000000000000000000000000815260040161107290612b33565b60405180910390fd5b6000611086836107bc565b90508073ffffffffffffffffffffffffffffffffffffffff168473ffffffffffffffffffffffffffffffffffffffff1614806110f557508373ffffffffffffffffffffffffffffffffffffffff166110dd84610506565b73ffffffffffffffffffffffffffffffffffffffff16145b8061110657506111058185610e06565b5b91505092915050565b8273ffffffffffffffffffffffffffffffffffffffff1661112f826107bc565b73ffffffffffffffffffffffffffffffffffffffff1614611185576040517f08c379a000000000000000000000000000000000000000000000000000000000815260040161117c90612bc5565b60405180910390fd5b600073ffffffffffffffffffffffffffffffffffffffff168273ffffffffffffffffffffffffffffffffffffffff1614156111f5576040517f08c379a00000000000000000000000000000000000000000000000000000000081526004016111ec90612c57565b60405180910390fd5b611200838383611690565b61120b600082610f78565b6001600360008573ffffffffffffffffffffffffffffffffffffffff1673ffffffffffffffffffffffffffffffffffffffff168152602001908152602001600020600082825461125b9190612c77565b925050819055506001600360008473ffffffffffffffffffffffffffffffffffffffff1673ffffffffffffffffffffffffffffffffffffffff16815260200190815260200160002060008282546112b291906129d9565b92505081905550816002600083815260200190815260200160002060006101000a81548173ffffffffffffffffffffffffffffffffffffffff021916908373ffffffffffffffffffffffffffffffffffffffff160217905550808273ffffffffffffffffffffffffffffffffffffffff168473ffffffffffffffffffffffffffffffffffffffff167fddf252ad1be2c89b69c2b068fc378daa952ba7f163c4a11628f55a4df523b3ef60405160405180910390a4505050565b606060008251141561138e576040518060200160405280600081525090506114df565b600060405180606001604052806040815260200161318060409139905060006003600285516113bd91906129d9565b6113c79190612cda565b60046113d39190612d0b565b905060006020826113e491906129d9565b67ffffffffffffffff8111156113fd576113fc611f6f565b5b6040519080825280601f01601f19166020018201604052801561142f5781602001600182028036833780820191505090505b509050818152600183018586518101602084015b8183101561149e576003830192508251603f8160121c168501518253600182019150603f81600c1c168501518253600182019150603f8160061c168501518253600182019150603f8116850151825360018201915050611443565b6003895106600181146114b857600281146114c8576114d3565b613d3d60f01b60028303526114d3565b603d60f81b60018303525b50505050508093505050505b919050565b6114fe828260405180602001604052806000815250611695565b5050565b61150b82610f04565b61154a576040517f08c379a000000000000000000000000000000000000000000000000000000000815260040161154190612dd7565b60405180910390fd5b80600660008481526020019081526020016000209080519060200190611571929190611bba565b505050565b61158184848461110f565b61158d848484846116f0565b6115cc576040517f08c379a00000000000000000000000000000000000000000000000000000000081526004016115c390612e69565b60405180910390fd5b50505050565b606060405180602001604052806000815250905090565b60606115f482610f04565b611633576040517f08c379a000000000000000000000000000000000000000000000000000000000815260040161162a90612efb565b60405180910390fd5b600061163d6115d2565b9050600081511161165d5760405180602001604052806000815250611688565b8061166784611878565b604051602001611678929190612606565b6040516020818303038152906040525b915050919050565b505050565b61169f83836119d9565b6116ac60008484846116f0565b6116eb576040517f08c379a00000000000000000000000000000000000000000000000000000000081526004016116e290612e69565b60405180910390fd5b505050565b60006117118473ffffffffffffffffffffffffffffffffffffffff16611ba7565b1561186b578373ffffffffffffffffffffffffffffffffffffffff1663150b7a0261173a610f70565b8786866040518563ffffffff1660e01b815260040161175c9493929190612f70565b6020604051808303816000875af192505050801561179857506040513d601f19601f820116820180604052508101906117959190612fd1565b60015b61181b573d80600081146117c8576040519150601f19603f3d011682016040523d82523d6000602084013e6117cd565b606091505b50600081511415611813576040517f08c379a000000000000000000000000000000000000000000000000000000000815260040161180a90612e69565b60405180910390fd5b805181602001fd5b63150b7a0260e01b7bffffffffffffffffffffffffffffffffffffffffffffffffffffffff1916817bffffffffffffffffffffffffffffffffffffffffffffffffffffffff191614915050611870565b600190505b949350505050565b606060008214156118c0576040518060400160405280600181526020017f300000000000000000000000000000000000000000000000000000000000000081525090506119d4565b600082905060005b600082146118f25780806118db90612ffe565b915050600a826118eb9190612cda565b91506118c8565b60008167ffffffffffffffff81111561190e5761190d611f6f565b5b6040519080825280601f01601f1916602001820160405280156119405781602001600182028036833780820191505090505b5090505b600085146119cd576001826119599190612c77565b9150600a856119689190613047565b603061197491906129d9565b60f81b81838151811061198a57611989613078565b5b60200101907effffffffffffffffffffffffffffffffffffffffffffffffffffffffffffff1916908160001a905350600a856119c69190612cda565b9450611944565b8093505050505b919050565b600073ffffffffffffffffffffffffffffffffffffffff168273ffffffffffffffffffffffffffffffffffffffff161415611a49576040517f08c379a0000000000000000000000000000000000000000000000000000000008152600401611a40906130f3565b60405180910390fd5b611a5281610f04565b15611a92576040517f08c379a0000000000000000000000000000000000000000000000000000000008152600401611a899061315f565b60405180910390fd5b611a9e60008383611690565b6001600360008473ffffffffffffffffffffffffffffffffffffffff1673ffffffffffffffffffffffffffffffffffffffff1681526020019081526020016000206000828254611aee91906129d9565b92505081905550816002600083815260200190815260200160002060006101000a81548173ffffffffffffffffffffffffffffffffffffffff021916908373ffffffffffffffffffffffffffffffffffffffff160217905550808273ffffffffffffffffffffffffffffffffffffffff16600073ffffffffffffffffffffffffffffffffffffffff167fddf252ad1be2c89b69c2b068fc378daa952ba7f163c4a11628f55a4df523b3ef60405160405180910390a45050565b600080823b905060008111915050919050565b828054611bc690612339565b90600052602060002090601f016020900481019282611be85760008555611c2f565b82601f10611c0157805160ff1916838001178555611c2f565b82800160010185558215611c2f579182015b82811115611c2e578251825591602001919060010190611c13565b5b509050611c3c9190611c40565b5090565b5b80821115611c59576000816000905550600101611c41565b5090565b6000604051905090565b600080fd5b600080fd5b60007fffffffff0000000000000000000000000000000000000000000000000000000082169050919050565b611ca681611c71565b8114611cb157600080fd5b50565b600081359050611cc381611c9d565b92915050565b600060208284031215611cdf57611cde611c67565b5b6000611ced84828501611cb4565b91505092915050565b60008115159050919050565b611d0b81611cf6565b82525050565b6000602082019050611d266000830184611d02565b92915050565b600081519050919050565b600082825260208201905092915050565b60005b83811015611d66578082015181840152602081019050611d4b565b83811115611d75576000848401525b50505050565b6000601f19601f8301169050919050565b6000611d9782611d2c565b611da18185611d37565b9350611db1818560208601611d48565b611dba81611d7b565b840191505092915050565b60006020820190508181036000830152611ddf8184611d8c565b905092915050565b6000819050919050565b611dfa81611de7565b8114611e0557600080fd5b50565b600081359050611e1781611df1565b92915050565b600060208284031215611e3357611e32611c67565b5b6000611e4184828501611e08565b91505092915050565b600073ffffffffffffffffffffffffffffffffffffffff82169050919050565b6000611e7582611e4a565b9050919050565b611e8581611e6a565b82525050565b6000602082019050611ea06000830184611e7c565b92915050565b611eaf81611e6a565b8114611eba57600080fd5b50565b600081359050611ecc81611ea6565b92915050565b60008060408385031215611ee957611ee8611c67565b5b6000611ef785828601611ebd565b9250506020611f0885828601611e08565b9150509250929050565b600080600060608486031215611f2b57611f2a611c67565b5b6000611f3986828701611ebd565b9350506020611f4a86828701611ebd565b9250506040611f5b86828701611e08565b9150509250925092565b600080fd5b600080fd5b7f4e487b7100000000000000000000000000000000000000000000000000000000600052604160045260246000fd5b611fa782611d7b565b810181811067ffffffffffffffff82111715611fc657611fc5611f6f565b5b80604052505050565b6000611fd9611c5d565b9050611fe58282611f9e565b919050565b600067ffffffffffffffff82111561200557612004611f6f565b5b61200e82611d7b565b9050602081019050919050565b82818337600083830152505050565b600061203d61203884611fea565b611fcf565b90508281526020810184848401111561205957612058611f6a565b5b61206484828561201b565b509392505050565b600082601f83011261208157612080611f65565b5b813561209184826020860161202a565b91505092915050565b6000602082840312156120b0576120af611c67565b5b600082013567ffffffffffffffff8111156120ce576120cd611c6c565b5b6120da8482850161206c565b91505092915050565b6000602082840312156120f9576120f8611c67565b5b600061210784828501611ebd565b91505092915050565b61211981611de7565b82525050565b60006020820190506121346000830184612110565b92915050565b61214381611cf6565b811461214e57600080fd5b50565b6000813590506121608161213a565b92915050565b6000806040838503121561217d5761217c611c67565b5b600061218b85828601611ebd565b925050602061219c85828601612151565b9150509250929050565b600067ffffffffffffffff8211156121c1576121c0611f6f565b5b6121ca82611d7b565b9050602081019050919050565b60006121ea6121e5846121a6565b611fcf565b90508281526020810184848401111561220657612205611f6a565b5b61221184828561201b565b509392505050565b600082601f83011261222e5761222d611f65565b5b813561223e8482602086016121d7565b91505092915050565b6000806000806080858703121561226157612260611c67565b5b600061226f87828801611ebd565b945050602061228087828801611ebd565b935050604061229187828801611e08565b925050606085013567ffffffffffffffff8111156122b2576122b1611c6c565b5b6122be87828801612219565b91505092959194509250565b600080604083850312156122e1576122e0611c67565b5b60006122ef85828601611ebd565b925050602061230085828601611ebd565b9150509250929050565b7f4e487b7100000000000000000000000000000000000000000000000000000000600052602260045260246000fd5b6000600282049050600182168061235157607f821691505b602082108114156123655761236461230a565b5b50919050565b7f4552433732313a20617070726f76656420717565727920666f72206e6f6e657860008201527f697374656e7420746f6b656e0000000000000000000000000000000000000000602082015250565b60006123c7602c83611d37565b91506123d28261236b565b604082019050919050565b600060208201905081810360008301526123f6816123ba565b9050919050565b7f4552433732313a20617070726f76616c20746f2063757272656e74206f776e6560008201527f7200000000000000000000000000000000000000000000000000000000000000602082015250565b6000612459602183611d37565b9150612464826123fd565b604082019050919050565b600060208201905081810360008301526124888161244c565b9050919050565b7f4552433732313a20617070726f76652063616c6c6572206973206e6f74206f7760008201527f6e6572206e6f7220617070726f76656420666f7220616c6c0000000000000000602082015250565b60006124eb603883611d37565b91506124f68261248f565b604082019050919050565b6000602082019050818103600083015261251a816124de565b9050919050565b7f4552433732313a207472616e736665722063616c6c6572206973206e6f74206f60008201527f776e6572206e6f7220617070726f766564000000000000000000000000000000602082015250565b600061257d603183611d37565b915061258882612521565b604082019050919050565b600060208201905081810360008301526125ac81612570565b9050919050565b600081905092915050565b60006125c982611d2c565b6125d381856125b3565b93506125e3818560208601611d48565b80840191505092915050565b60006125fb82846125be565b915081905092915050565b600061261282856125be565b915061261e82846125be565b91508190509392505050565b7f4552433732313a206f776e657220717565727920666f72206e6f6e657869737460008201527f656e7420746f6b656e0000000000000000000000000000000000000000000000602082015250565b6000612686602983611d37565b91506126918261262a565b604082019050919050565b600060208201905081810360008301526126b581612679565b9050919050565b7f4552433732313a2062616c616e636520717565727920666f7220746865207a6560008201527f726f206164647265737300000000000000000000000000000000000000000000602082015250565b6000612718602a83611d37565b9150612723826126bc565b604082019050919050565b600060208201905081810360008301526127478161270b565b9050919050565b7f7b226e616d65223a2022535647204e4654220000000000000000000000000000600082015250565b60006127846012836125b3565b915061278f8261274e565b601282019050919050565b7f226465736372697074696f6e223a2022416e204e4654206261736564206f6e2060008201527f5356472200000000000000000000000000000000000000000000000000000000602082015250565b60006127f66024836125b3565b91506128018261279a565b602482019050919050565b7f2261747472696275746573223a20222200000000000000000000000000000000600082015250565b60006128426010836125b3565b915061284d8261280c565b601082019050919050565b7f22696d616765223a202200000000000000000000000000000000000000000000600082015250565b600061288e600a836125b3565b915061289982612858565b600a82019050919050565b7f227d000000000000000000000000000000000000000000000000000000000000600082015250565b60006128da6002836125b3565b91506128e5826128a4565b600282019050919050565b60006128fb82612777565b9150612906826127e9565b915061291182612835565b915061291c82612881565b915061292882846125be565b9150612933826128cd565b915081905092915050565b7f4552433732313a20617070726f766520746f2063616c6c657200000000000000600082015250565b6000612974601983611d37565b915061297f8261293e565b602082019050919050565b600060208201905081810360008301526129a381612967565b9050919050565b7f4e487b7100000000000000000000000000000000000000000000000000000000600052601160045260246000fd5b60006129e482611de7565b91506129ef83611de7565b9250827fffffffffffffffffffffffffffffffffffffffffffffffffffffffffffffffff03821115612a2457612a236129aa565b5b828201905092915050565b7f45524337323155524953746f726167653a2055524920717565727920666f722060008201527f6e6f6e6578697374656e7420746f6b656e000000000000000000000000000000602082015250565b6000612a8b603183611d37565b9150612a9682612a2f565b604082019050919050565b60006020820190508181036000830152612aba81612a7e565b9050919050565b7f4552433732313a206f70657261746f7220717565727920666f72206e6f6e657860008201527f697374656e7420746f6b656e0000000000000000000000000000000000000000602082015250565b6000612b1d602c83611d37565b9150612b2882612ac1565b604082019050919050565b60006020820190508181036000830152612b4c81612b10565b9050919050565b7f4552433732313a207472616e73666572206f6620746f6b656e2074686174206960008201527f73206e6f74206f776e0000000000000000000000000000000000000000000000602082015250565b6000612baf602983611d37565b9150612bba82612b53565b604082019050919050565b60006020820190508181036000830152612bde81612ba2565b9050919050565b7f4552433732313a207472616e7366657220746f20746865207a65726f2061646460008201527f7265737300000000000000000000000000000000000000000000000000000000602082015250565b6000612c41602483611d37565b9150612c4c82612be5565b604082019050919050565b60006020820190508181036000830152612c7081612c34565b9050919050565b6000612c8282611de7565b9150612c8d83611de7565b925082821015612ca057612c9f6129aa565b5b828203905092915050565b7f4e487b7100000000000000000000000000000000000000000000000000000000600052601260045260246000fd5b6000612ce582611de7565b9150612cf083611de7565b925082612d0057612cff612cab565b5b828204905092915050565b6000612d1682611de7565b9150612d2183611de7565b9250817fffffffffffffffffffffffffffffffffffffffffffffffffffffffffffffffff0483118215151615612d5a57612d596129aa565b5b828202905092915050565b7f45524337323155524953746f726167653a2055524920736574206f66206e6f6e60008201527f6578697374656e7420746f6b656e000000000000000000000000000000000000602082015250565b6000612dc1602e83611d37565b9150612dcc82612d65565b604082019050919050565b60006020820190508181036000830152612df081612db4565b9050919050565b7f4552433732313a207472616e7366657220746f206e6f6e20455243373231526560008201527f63656976657220696d706c656d656e7465720000000000000000000000000000602082015250565b6000612e53603283611d37565b9150612e5e82612df7565b604082019050919050565b60006020820190508181036000830152612e8281612e46565b9050919050565b7f4552433732314d657461646174613a2055524920717565727920666f72206e6f60008201527f6e6578697374656e7420746f6b656e0000000000000000000000000000000000602082015250565b6000612ee5602f83611d37565b9150612ef082612e89565b604082019050919050565b60006020820190508181036000830152612f1481612ed8565b9050919050565b600081519050919050565b600082825260208201905092915050565b6000612f4282612f1b565b612f4c8185612f26565b9350612f5c818560208601611d48565b612f6581611d7b565b840191505092915050565b6000608082019050612f856000830187611e7c565b612f926020830186611e7c565b612f9f6040830185612110565b8181036060830152612fb18184612f37565b905095945050505050565b600081519050612fcb81611c9d565b92915050565b600060208284031215612fe757612fe6611c67565b5b6000612ff584828501612fbc565b91505092915050565b600061300982611de7565b91507fffffffffffffffffffffffffffffffffffffffffffffffffffffffffffffffff82141561303c5761303b6129aa565b5b600182019050919050565b600061305282611de7565b915061305d83611de7565b92508261306d5761306c612cab565b5b828206905092915050565b7f4e487b7100000000000000000000000000000000000000000000000000000000600052603260045260246000fd5b7f4552433732313a206d696e7420746f20746865207a65726f2061646472657373600082015250565b60006130dd602083611d37565b91506130e8826130a7565b602082019050919050565b6000602082019050818103600083015261310c816130d0565b9050919050565b7f4552433732313a20746f6b656e20616c7265616479206d696e74656400000000600082015250565b6000613149601c83611d37565b915061315482613113565b602082019050919050565b600060208201905081810360008301526131788161313c565b905091905056fe4142434445464748494a4b4c4d4e4f505152535455565758595a6162636465666768696a6b6c6d6e6f707172737475767778797a303132333435363738392b2fa2646970667358221220df39d17faaf77f818f538a288b2d89b6e4844852c9b978e8b878ab3c67e594ba64736f6c634300080a0033",
  "devdoc": {
    "kind": "dev",
    "methods": {
      "approve(address,uint256)": {
        "details": "See {IERC721-approve}."
      },
      "balanceOf(address)": {
        "details": "See {IERC721-balanceOf}."
      },
      "getApproved(uint256)": {
        "details": "See {IERC721-getApproved}."
      },
      "isApprovedForAll(address,address)": {
        "details": "See {IERC721-isApprovedForAll}."
      },
      "name()": {
        "details": "See {IERC721Metadata-name}."
      },
      "ownerOf(uint256)": {
        "details": "See {IERC721-ownerOf}."
      },
      "safeTransferFrom(address,address,uint256)": {
        "details": "See {IERC721-safeTransferFrom}."
      },
      "safeTransferFrom(address,address,uint256,bytes)": {
        "details": "See {IERC721-safeTransferFrom}."
      },
      "setApprovalForAll(address,bool)": {
        "details": "See {IERC721-setApprovalForAll}."
      },
      "supportsInterface(bytes4)": {
        "details": "See {IERC165-supportsInterface}."
      },
      "symbol()": {
        "details": "See {IERC721Metadata-symbol}."
      },
      "tokenURI(uint256)": {
        "details": "See {IERC721Metadata-tokenURI}."
      },
      "transferFrom(address,address,uint256)": {
        "details": "See {IERC721-transferFrom}."
      }
    },
    "version": 1
  },
  "userdoc": {
    "kind": "user",
    "methods": {},
    "version": 1
  },
  "storageLayout": {
    "storage": [
      {
        "astId": 25,
        "contract": "contracts/svgnft.sol:SVGNFT",
        "label": "_name",
        "offset": 0,
        "slot": "0",
        "type": "t_string_storage"
      },
      {
        "astId": 27,
        "contract": "contracts/svgnft.sol:SVGNFT",
        "label": "_symbol",
        "offset": 0,
        "slot": "1",
        "type": "t_string_storage"
      },
      {
        "astId": 31,
        "contract": "contracts/svgnft.sol:SVGNFT",
        "label": "_owners",
        "offset": 0,
        "slot": "2",
        "type": "t_mapping(t_uint256,t_address)"
      },
      {
        "astId": 35,
        "contract": "contracts/svgnft.sol:SVGNFT",
        "label": "_balances",
        "offset": 0,
        "slot": "3",
        "type": "t_mapping(t_address,t_uint256)"
      },
      {
        "astId": 39,
        "contract": "contracts/svgnft.sol:SVGNFT",
        "label": "_tokenApprovals",
        "offset": 0,
        "slot": "4",
        "type": "t_mapping(t_uint256,t_address)"
      },
      {
        "astId": 45,
        "contract": "contracts/svgnft.sol:SVGNFT",
        "label": "_operatorApprovals",
        "offset": 0,
        "slot": "5",
        "type": "t_mapping(t_address,t_mapping(t_address,t_bool))"
      },
      {
        "astId": 962,
        "contract": "contracts/svgnft.sol:SVGNFT",
        "label": "_tokenURIs",
        "offset": 0,
        "slot": "6",
        "type": "t_mapping(t_uint256,t_string_storage)"
      },
      {
        "astId": 1785,
        "contract": "contracts/svgnft.sol:SVGNFT",
        "label": "tokenCounter",
        "offset": 0,
        "slot": "7",
        "type": "t_uint256"
      }
    ],
    "types": {
      "t_address": {
        "encoding": "inplace",
        "label": "address",
        "numberOfBytes": "20"
      },
      "t_bool": {
        "encoding": "inplace",
        "label": "bool",
        "numberOfBytes": "1"
      },
      "t_mapping(t_address,t_bool)": {
        "encoding": "mapping",
        "key": "t_address",
        "label": "mapping(address => bool)",
        "numberOfBytes": "32",
        "value": "t_bool"
      },
      "t_mapping(t_address,t_mapping(t_address,t_bool))": {
        "encoding": "mapping",
        "key": "t_address",
        "label": "mapping(address => mapping(address => bool))",
        "numberOfBytes": "32",
        "value": "t_mapping(t_address,t_bool)"
      },
      "t_mapping(t_address,t_uint256)": {
        "encoding": "mapping",
        "key": "t_address",
        "label": "mapping(address => uint256)",
        "numberOfBytes": "32",
        "value": "t_uint256"
      },
      "t_mapping(t_uint256,t_address)": {
        "encoding": "mapping",
        "key": "t_uint256",
        "label": "mapping(uint256 => address)",
        "numberOfBytes": "32",
        "value": "t_address"
      },
      "t_mapping(t_uint256,t_string_storage)": {
        "encoding": "mapping",
        "key": "t_uint256",
        "label": "mapping(uint256 => string)",
        "numberOfBytes": "32",
        "value": "t_string_storage"
      },
      "t_string_storage": {
        "encoding": "bytes",
        "label": "string",
        "numberOfBytes": "32"
      },
      "t_uint256": {
        "encoding": "inplace",
        "label": "uint256",
        "numberOfBytes": "32"
      }
    }
  }
}